{
  "contractName": "NeptuneDeFi",
  "abi": [
    {
      "inputs": [],
      "stateMutability": "nonpayable",
      "type": "constructor"
    },
    {
      "anonymous": false,
      "inputs": [
        {
          "indexed": true,
          "internalType": "address",
          "name": "owner",
          "type": "address"
        },
        {
          "indexed": true,
          "internalType": "address",
          "name": "spender",
          "type": "address"
        },
        {
          "indexed": false,
          "internalType": "uint256",
          "name": "value",
          "type": "uint256"
        }
      ],
      "name": "Approval",
      "type": "event"
    },
    {
      "anonymous": false,
      "inputs": [
        {
          "indexed": false,
          "internalType": "uint256",
          "name": "minTokensBeforeSwap",
          "type": "uint256"
        }
      ],
      "name": "MinTokensBeforeSwapUpdated",
      "type": "event"
    },
    {
      "anonymous": false,
      "inputs": [
        {
          "indexed": true,
          "internalType": "address",
          "name": "previousOwner",
          "type": "address"
        },
        {
          "indexed": true,
          "internalType": "address",
          "name": "newOwner",
          "type": "address"
        }
      ],
      "name": "OwnershipTransferred",
      "type": "event"
    },
    {
      "anonymous": false,
      "inputs": [
        {
          "indexed": false,
          "internalType": "uint256",
          "name": "tokensSwapped",
          "type": "uint256"
        },
        {
          "indexed": false,
          "internalType": "uint256",
          "name": "ethReceived",
          "type": "uint256"
        },
        {
          "indexed": false,
          "internalType": "uint256",
          "name": "tokensIntoLiqudity",
          "type": "uint256"
        }
      ],
      "name": "SwapAndLiquify",
      "type": "event"
    },
    {
      "anonymous": false,
      "inputs": [
        {
          "indexed": false,
          "internalType": "bool",
          "name": "enabled",
          "type": "bool"
        }
      ],
      "name": "SwapAndLiquifyEnabledUpdated",
      "type": "event"
    },
    {
      "anonymous": false,
      "inputs": [
        {
          "indexed": true,
          "internalType": "address",
          "name": "from",
          "type": "address"
        },
        {
          "indexed": true,
          "internalType": "address",
          "name": "to",
          "type": "address"
        },
        {
          "indexed": false,
          "internalType": "uint256",
          "name": "value",
          "type": "uint256"
        }
      ],
      "name": "Transfer",
      "type": "event"
    },
    {
      "inputs": [],
      "name": "_liquidityFee",
      "outputs": [
        {
          "internalType": "uint256",
          "name": "",
          "type": "uint256"
        }
      ],
      "stateMutability": "view",
      "type": "function"
    },
    {
      "inputs": [],
      "name": "_maxTxAmount",
      "outputs": [
        {
          "internalType": "uint256",
          "name": "",
          "type": "uint256"
        }
      ],
      "stateMutability": "view",
      "type": "function"
    },
    {
      "inputs": [],
      "name": "_taxFee",
      "outputs": [
        {
          "internalType": "uint256",
          "name": "",
          "type": "uint256"
        }
      ],
      "stateMutability": "view",
      "type": "function"
    },
    {
      "inputs": [],
      "name": "owner",
      "outputs": [
        {
          "internalType": "address",
          "name": "",
          "type": "address"
        }
      ],
      "stateMutability": "view",
      "type": "function"
    },
    {
      "inputs": [],
      "name": "renounceOwnership",
      "outputs": [],
      "stateMutability": "nonpayable",
      "type": "function"
    },
    {
      "inputs": [],
      "name": "swapAndLiquifyEnabled",
      "outputs": [
        {
          "internalType": "bool",
          "name": "",
          "type": "bool"
        }
      ],
      "stateMutability": "view",
      "type": "function"
    },
    {
      "inputs": [
        {
          "internalType": "address",
          "name": "newOwner",
          "type": "address"
        }
      ],
      "name": "transferOwnership",
      "outputs": [],
      "stateMutability": "nonpayable",
      "type": "function"
    },
    {
      "inputs": [],
      "name": "uniswapV2Pair",
      "outputs": [
        {
          "internalType": "address",
          "name": "",
          "type": "address"
        }
      ],
      "stateMutability": "view",
      "type": "function"
    },
    {
      "inputs": [],
      "name": "uniswapV2Router",
      "outputs": [
        {
          "internalType": "contract IUniswapV2Router02",
          "name": "",
          "type": "address"
        }
      ],
      "stateMutability": "view",
      "type": "function"
    },
    {
      "stateMutability": "payable",
      "type": "receive"
    },
    {
      "inputs": [],
      "name": "name",
      "outputs": [
        {
          "internalType": "string",
          "name": "",
          "type": "string"
        }
      ],
      "stateMutability": "view",
      "type": "function"
    },
    {
      "inputs": [],
      "name": "symbol",
      "outputs": [
        {
          "internalType": "string",
          "name": "",
          "type": "string"
        }
      ],
      "stateMutability": "view",
      "type": "function"
    },
    {
      "inputs": [],
      "name": "decimals",
      "outputs": [
        {
          "internalType": "uint8",
          "name": "",
          "type": "uint8"
        }
      ],
      "stateMutability": "view",
      "type": "function"
    },
    {
      "inputs": [],
      "name": "totalSupply",
      "outputs": [
        {
          "internalType": "uint256",
          "name": "",
          "type": "uint256"
        }
      ],
      "stateMutability": "view",
      "type": "function"
    },
    {
      "inputs": [
        {
          "internalType": "address",
          "name": "account",
          "type": "address"
        }
      ],
      "name": "balanceOf",
      "outputs": [
        {
          "internalType": "uint256",
          "name": "",
          "type": "uint256"
        }
      ],
      "stateMutability": "view",
      "type": "function"
    },
    {
      "inputs": [
        {
          "internalType": "address",
          "name": "recipient",
          "type": "address"
        },
        {
          "internalType": "uint256",
          "name": "amount",
          "type": "uint256"
        }
      ],
      "name": "transfer",
      "outputs": [
        {
          "internalType": "bool",
          "name": "",
          "type": "bool"
        }
      ],
      "stateMutability": "nonpayable",
      "type": "function"
    },
    {
      "inputs": [
        {
          "internalType": "address",
          "name": "owner",
          "type": "address"
        },
        {
          "internalType": "address",
          "name": "spender",
          "type": "address"
        }
      ],
      "name": "allowance",
      "outputs": [
        {
          "internalType": "uint256",
          "name": "",
          "type": "uint256"
        }
      ],
      "stateMutability": "view",
      "type": "function"
    },
    {
      "inputs": [
        {
          "internalType": "address",
          "name": "spender",
          "type": "address"
        },
        {
          "internalType": "uint256",
          "name": "amount",
          "type": "uint256"
        }
      ],
      "name": "approve",
      "outputs": [
        {
          "internalType": "bool",
          "name": "",
          "type": "bool"
        }
      ],
      "stateMutability": "nonpayable",
      "type": "function"
    },
    {
      "inputs": [
        {
          "internalType": "address",
          "name": "sender",
          "type": "address"
        },
        {
          "internalType": "address",
          "name": "recipient",
          "type": "address"
        },
        {
          "internalType": "uint256",
          "name": "amount",
          "type": "uint256"
        }
      ],
      "name": "transferFrom",
      "outputs": [
        {
          "internalType": "bool",
          "name": "",
          "type": "bool"
        }
      ],
      "stateMutability": "nonpayable",
      "type": "function"
    },
    {
      "inputs": [
        {
          "internalType": "address",
          "name": "spender",
          "type": "address"
        },
        {
          "internalType": "uint256",
          "name": "addedValue",
          "type": "uint256"
        }
      ],
      "name": "increaseAllowance",
      "outputs": [
        {
          "internalType": "bool",
          "name": "",
          "type": "bool"
        }
      ],
      "stateMutability": "nonpayable",
      "type": "function"
    },
    {
      "inputs": [
        {
          "internalType": "address",
          "name": "spender",
          "type": "address"
        },
        {
          "internalType": "uint256",
          "name": "subtractedValue",
          "type": "uint256"
        }
      ],
      "name": "decreaseAllowance",
      "outputs": [
        {
          "internalType": "bool",
          "name": "",
          "type": "bool"
        }
      ],
      "stateMutability": "nonpayable",
      "type": "function"
    },
    {
      "inputs": [
        {
          "internalType": "address",
          "name": "account",
          "type": "address"
        }
      ],
      "name": "isExcludedFromReward",
      "outputs": [
        {
          "internalType": "bool",
          "name": "",
          "type": "bool"
        }
      ],
      "stateMutability": "view",
      "type": "function"
    },
    {
      "inputs": [],
      "name": "totalFees",
      "outputs": [
        {
          "internalType": "uint256",
          "name": "",
          "type": "uint256"
        }
      ],
      "stateMutability": "view",
      "type": "function"
    },
    {
      "inputs": [
        {
          "internalType": "uint256",
          "name": "tAmount",
          "type": "uint256"
        }
      ],
      "name": "deliver",
      "outputs": [],
      "stateMutability": "nonpayable",
      "type": "function"
    },
    {
      "inputs": [
        {
          "internalType": "uint256",
          "name": "tAmount",
          "type": "uint256"
        },
        {
          "internalType": "bool",
          "name": "deductTransferFee",
          "type": "bool"
        }
      ],
      "name": "reflectionFromToken",
      "outputs": [
        {
          "internalType": "uint256",
          "name": "",
          "type": "uint256"
        }
      ],
      "stateMutability": "view",
      "type": "function"
    },
    {
      "inputs": [
        {
          "internalType": "uint256",
          "name": "rAmount",
          "type": "uint256"
        }
      ],
      "name": "tokenFromReflection",
      "outputs": [
        {
          "internalType": "uint256",
          "name": "",
          "type": "uint256"
        }
      ],
      "stateMutability": "view",
      "type": "function"
    },
    {
      "inputs": [
        {
          "internalType": "address",
          "name": "account",
          "type": "address"
        }
      ],
      "name": "excludeFromReward",
      "outputs": [],
      "stateMutability": "nonpayable",
      "type": "function"
    },
    {
      "inputs": [
        {
          "internalType": "address",
          "name": "account",
          "type": "address"
        }
      ],
      "name": "includeInReward",
      "outputs": [],
      "stateMutability": "nonpayable",
      "type": "function"
    },
    {
      "inputs": [
        {
          "internalType": "address",
          "name": "account",
          "type": "address"
        }
      ],
      "name": "excludeFromFee",
      "outputs": [],
      "stateMutability": "nonpayable",
      "type": "function"
    },
    {
      "inputs": [
        {
          "internalType": "address",
          "name": "account",
          "type": "address"
        }
      ],
      "name": "includeInFee",
      "outputs": [],
      "stateMutability": "nonpayable",
      "type": "function"
    },
    {
      "inputs": [
        {
          "internalType": "uint256",
          "name": "taxFee",
          "type": "uint256"
        }
      ],
      "name": "setTaxFeePercent",
      "outputs": [],
      "stateMutability": "nonpayable",
      "type": "function"
    },
    {
      "inputs": [
        {
          "internalType": "uint256",
          "name": "liquidityFee",
          "type": "uint256"
        }
      ],
      "name": "setLiquidityFeePercent",
      "outputs": [],
      "stateMutability": "nonpayable",
      "type": "function"
    },
    {
      "inputs": [
        {
          "internalType": "uint256",
          "name": "maxTxPercent",
          "type": "uint256"
        }
      ],
      "name": "setMaxTxPercent",
      "outputs": [],
      "stateMutability": "nonpayable",
      "type": "function"
    },
    {
      "inputs": [
        {
          "internalType": "bool",
          "name": "_enabled",
          "type": "bool"
        }
      ],
      "name": "setSwapAndLiquifyEnabled",
      "outputs": [],
      "stateMutability": "nonpayable",
      "type": "function"
    },
    {
      "inputs": [
        {
          "internalType": "address",
          "name": "account",
          "type": "address"
        }
      ],
      "name": "isExcludedFromFee",
      "outputs": [
        {
          "internalType": "bool",
          "name": "",
          "type": "bool"
        }
      ],
      "stateMutability": "view",
      "type": "function"
    }
  ],
  "bytecode": "0x60c060405269d3c21bcecceda1000000600755600754600019620000249190620007e6565b60001962000033919062000737565b6008556040518060400160405280600b81526020017f4e657074756e6544654669000000000000000000000000000000000000000000815250600a908051906020019062000083929190620005d8565b506040518060400160405280600b81526020017f4e455054554e4544454649000000000000000000000000000000000000000000815250600b9080519060200190620000d1929190620005d8565b506009600c60006101000a81548160ff021916908360ff1602179055506005600d55600d54600e556005600f55600f546010556001601160016101000a81548160ff02191690831515021790555069010f0cf064dd59200000601255681b1ae4d6e2ef5000006013553480156200014757600080fd5b5060006200015a620005a760201b60201c565b9050806000806101000a81548173ffffffffffffffffffffffffffffffffffffffff021916908373ffffffffffffffffffffffffffffffffffffffff1602179055508073ffffffffffffffffffffffffffffffffffffffff16600073ffffffffffffffffffffffffffffffffffffffff167f8be0079c531659141344cd1fd0a4f28419497f9722a3daafe3b4186f6b6457e060405160405180910390a350600854600160006200020f620005a760201b60201c565b73ffffffffffffffffffffffffffffffffffffffff1673ffffffffffffffffffffffffffffffffffffffff1681526020019081526020016000208190555060007398ab334d0041298410d109b2f3437a19c94489b690508073ffffffffffffffffffffffffffffffffffffffff1663c45a01556040518163ffffffff1660e01b815260040160206040518083038186803b158015620002ad57600080fd5b505afa158015620002c2573d6000803e3d6000fd5b505050506040513d601f19601f82011682018060405250810190620002e891906200069f565b73ffffffffffffffffffffffffffffffffffffffff1663c9c65396308373ffffffffffffffffffffffffffffffffffffffff1663ad5c46486040518163ffffffff1660e01b815260040160206040518083038186803b1580156200034b57600080fd5b505afa15801562000360573d6000803e3d6000fd5b505050506040513d601f19601f820116820180604052508101906200038691906200069f565b6040518363ffffffff1660e01b8152600401620003a5929190620006ed565b602060405180830381600087803b158015620003c057600080fd5b505af1158015620003d5573d6000803e3d6000fd5b505050506040513d601f19601f82011682018060405250810190620003fb91906200069f565b73ffffffffffffffffffffffffffffffffffffffff1660a08173ffffffffffffffffffffffffffffffffffffffff1660601b815250508073ffffffffffffffffffffffffffffffffffffffff1660808173ffffffffffffffffffffffffffffffffffffffff1660601b815250506001600460006200047e620005af60201b60201c565b73ffffffffffffffffffffffffffffffffffffffff1673ffffffffffffffffffffffffffffffffffffffff16815260200190815260200160002060006101000a81548160ff0219169083151502179055506001600460003073ffffffffffffffffffffffffffffffffffffffff1673ffffffffffffffffffffffffffffffffffffffff16815260200190815260200160002060006101000a81548160ff02191690831515021790555062000537620005a760201b60201c565b73ffffffffffffffffffffffffffffffffffffffff16600073ffffffffffffffffffffffffffffffffffffffff167fddf252ad1be2c89b69c2b068fc378daa952ba7f163c4a11628f55a4df523b3ef6007546040516200059891906200071a565b60405180910390a350620008c5565b600033905090565b60008060009054906101000a900473ffffffffffffffffffffffffffffffffffffffff16905090565b828054620005e690620007b0565b90600052602060002090601f0160209004810192826200060a576000855562000656565b82601f106200062557805160ff191683800117855562000656565b8280016001018555821562000656579182015b828111156200065557825182559160200191906001019062000638565b5b50905062000665919062000669565b5090565b5b80821115620006845760008160009055506001016200066a565b5090565b6000815190506200069981620008ab565b92915050565b600060208284031215620006b257600080fd5b6000620006c28482850162000688565b91505092915050565b620006d68162000772565b82525050565b620006e781620007a6565b82525050565b6000604082019050620007046000830185620006cb565b620007136020830184620006cb565b9392505050565b6000602082019050620007316000830184620006dc565b92915050565b60006200074482620007a6565b91506200075183620007a6565b9250828210156200076757620007666200081e565b5b828203905092915050565b60006200077f8262000786565b9050919050565b600073ffffffffffffffffffffffffffffffffffffffff82169050919050565b6000819050919050565b60006002820490506001821680620007c957607f821691505b60208210811415620007e057620007df6200087c565b5b50919050565b6000620007f382620007a6565b91506200080083620007a6565b9250826200081357620008126200084d565b5b828206905092915050565b7f4e487b7100000000000000000000000000000000000000000000000000000000600052601160045260246000fd5b7f4e487b7100000000000000000000000000000000000000000000000000000000600052601260045260246000fd5b7f4e487b7100000000000000000000000000000000000000000000000000000000600052602260045260246000fd5b620008b68162000772565b8114620008c257600080fd5b50565b60805160601c60a05160601c614cb56200091b6000396000818161128801526122e501526000818161099f01528181612e5901528181612f6f01528181612f960152818161303201526130590152614cb56000f3fe6080604052600436106101fd5760003560e01c806352390c021161010d5780638ee88c53116100a0578063c49b9a801161006f578063c49b9a801461077c578063d543dbeb146107a5578063dd62ed3e146107ce578063ea2f0b371461080b578063f2fde38b1461083457610204565b80638ee88c53146106ae57806395d89b41146106d7578063a457c2d714610702578063a9059cbb1461073f57610204565b8063715018a6116100dc578063715018a6146106045780637d1db4a51461061b57806388f82020146106465780638da5cb5b1461068357610204565b806352390c02146105365780635342acb41461055f5780636bc87c3a1461059c57806370a08231146105c757610204565b8063313ce567116101905780633bd5d1731161015f5780633bd5d17314610451578063437823ec1461047a5780634549b039146104a357806349bd5a5e146104e05780634a74bb021461050b57610204565b8063313ce567146103955780633685d419146103c057806339509351146103e95780633b124fe71461042657610204565b80631694505e116101cc5780631694505e146102c557806318160ddd146102f057806323b872dd1461031b5780632d8381191461035857610204565b8063061c82d01461020957806306fdde0314610232578063095ea7b31461025d57806313114a9d1461029a57610204565b3661020457005b600080fd5b34801561021557600080fd5b50610230600480360381019061022b9190613edf565b61085d565b005b34801561023e57600080fd5b506102476108e3565b6040516102549190614301565b60405180910390f35b34801561026957600080fd5b50610284600480360381019061027f9190613e7a565b610975565b60405161029191906142cb565b60405180910390f35b3480156102a657600080fd5b506102af610993565b6040516102bc91906144a3565b60405180910390f35b3480156102d157600080fd5b506102da61099d565b6040516102e791906142e6565b60405180910390f35b3480156102fc57600080fd5b506103056109c1565b60405161031291906144a3565b60405180910390f35b34801561032757600080fd5b50610342600480360381019061033d9190613e2b565b6109cb565b60405161034f91906142cb565b60405180910390f35b34801561036457600080fd5b5061037f600480360381019061037a9190613edf565b610aa4565b60405161038c91906144a3565b60405180910390f35b3480156103a157600080fd5b506103aa610b12565b6040516103b7919061454f565b60405180910390f35b3480156103cc57600080fd5b506103e760048036038101906103e29190613d9d565b610b29565b005b3480156103f557600080fd5b50610410600480360381019061040b9190613e7a565b610ef7565b60405161041d91906142cb565b60405180910390f35b34801561043257600080fd5b5061043b610faa565b60405161044891906144a3565b60405180910390f35b34801561045d57600080fd5b5061047860048036038101906104739190613edf565b610fb0565b005b34801561048657600080fd5b506104a1600480360381019061049c9190613d9d565b61112b565b005b3480156104af57600080fd5b506104ca60048036038101906104c59190613f08565b611202565b6040516104d791906144a3565b60405180910390f35b3480156104ec57600080fd5b506104f5611286565b604051610502919061424f565b60405180910390f35b34801561051757600080fd5b506105206112aa565b60405161052d91906142cb565b60405180910390f35b34801561054257600080fd5b5061055d60048036038101906105589190613d9d565b6112bd565b005b34801561056b57600080fd5b5061058660048036038101906105819190613d9d565b611558565b60405161059391906142cb565b60405180910390f35b3480156105a857600080fd5b506105b16115ae565b6040516105be91906144a3565b60405180910390f35b3480156105d357600080fd5b506105ee60048036038101906105e99190613d9d565b6115b4565b6040516105fb91906144a3565b60405180910390f35b34801561061057600080fd5b5061061961169f565b005b34801561062757600080fd5b506106306117d9565b60405161063d91906144a3565b60405180910390f35b34801561065257600080fd5b5061066d60048036038101906106689190613d9d565b6117df565b60405161067a91906142cb565b60405180910390f35b34801561068f57600080fd5b50610698611835565b6040516106a5919061424f565b60405180910390f35b3480156106ba57600080fd5b506106d560048036038101906106d09190613edf565b61185e565b005b3480156106e357600080fd5b506106ec6118e4565b6040516106f99190614301565b60405180910390f35b34801561070e57600080fd5b5061072960048036038101906107249190613e7a565b611976565b60405161073691906142cb565b60405180910390f35b34801561074b57600080fd5b5061076660048036038101906107619190613e7a565b611a43565b60405161077391906142cb565b60405180910390f35b34801561078857600080fd5b506107a3600480360381019061079e9190613eb6565b611a61565b005b3480156107b157600080fd5b506107cc60048036038101906107c79190613edf565b611b31565b005b3480156107da57600080fd5b506107f560048036038101906107f09190613def565b611bde565b60405161080291906144a3565b60405180910390f35b34801561081757600080fd5b50610832600480360381019061082d9190613d9d565b611c65565b005b34801561084057600080fd5b5061085b60048036038101906108569190613d9d565b611d3c565b005b610865611ee5565b73ffffffffffffffffffffffffffffffffffffffff16610883611835565b73ffffffffffffffffffffffffffffffffffffffff16146108d9576040517f08c379a00000000000000000000000000000000000000000000000000000000081526004016108d090614403565b60405180910390fd5b80600d8190555050565b6060600a80546108f290614792565b80601f016020809104026020016040519081016040528092919081815260200182805461091e90614792565b801561096b5780601f106109405761010080835404028352916020019161096b565b820191906000526020600020905b81548152906001019060200180831161094e57829003601f168201915b5050505050905090565b6000610989610982611ee5565b8484611eed565b6001905092915050565b6000600954905090565b7f000000000000000000000000000000000000000000000000000000000000000081565b6000600754905090565b60006109d88484846120b8565b610a99846109e4611ee5565b610a9485604051806060016040528060288152602001614c3360289139600360008b73ffffffffffffffffffffffffffffffffffffffff1673ffffffffffffffffffffffffffffffffffffffff1681526020019081526020016000206000610a4a611ee5565b73ffffffffffffffffffffffffffffffffffffffff1673ffffffffffffffffffffffffffffffffffffffff168152602001908152602001600020546124259092919063ffffffff16565b611eed565b600190509392505050565b6000600854821115610aeb576040517f08c379a0000000000000000000000000000000000000000000000000000000008152600401610ae290614343565b60405180910390fd5b6000610af561247a565b9050610b0a81846124a590919063ffffffff16565b915050919050565b6000600c60009054906101000a900460ff16905090565b610b31611ee5565b73ffffffffffffffffffffffffffffffffffffffff16610b4f611835565b73ffffffffffffffffffffffffffffffffffffffff1614610ba5576040517f08c379a0000000000000000000000000000000000000000000000000000000008152600401610b9c90614403565b60405180910390fd5b600560008273ffffffffffffffffffffffffffffffffffffffff1673ffffffffffffffffffffffffffffffffffffffff16815260200190815260200160002060009054906101000a900460ff16610c31576040517f08c379a0000000000000000000000000000000000000000000000000000000008152600401610c28906143a3565b60405180910390fd5b60005b600680549050811015610ef3578173ffffffffffffffffffffffffffffffffffffffff1660068281548110610c92577f4e487b7100000000000000000000000000000000000000000000000000000000600052603260045260246000fd5b9060005260206000200160009054906101000a900473ffffffffffffffffffffffffffffffffffffffff1673ffffffffffffffffffffffffffffffffffffffff161415610ee05760066001600680549050610ced91906146a0565b81548110610d24577f4e487b7100000000000000000000000000000000000000000000000000000000600052603260045260246000fd5b9060005260206000200160009054906101000a900473ffffffffffffffffffffffffffffffffffffffff1660068281548110610d89577f4e487b7100000000000000000000000000000000000000000000000000000000600052603260045260246000fd5b9060005260206000200160006101000a81548173ffffffffffffffffffffffffffffffffffffffff021916908373ffffffffffffffffffffffffffffffffffffffff1602179055506000600260008473ffffffffffffffffffffffffffffffffffffffff1673ffffffffffffffffffffffffffffffffffffffff168152602001908152602001600020819055506000600560008473ffffffffffffffffffffffffffffffffffffffff1673ffffffffffffffffffffffffffffffffffffffff16815260200190815260200160002060006101000a81548160ff0219169083151502179055506006805480610ea6577f4e487b7100000000000000000000000000000000000000000000000000000000600052603160045260246000fd5b6001900381819060005260206000200160006101000a81549073ffffffffffffffffffffffffffffffffffffffff02191690559055610ef3565b8080610eeb906147c4565b915050610c34565b5050565b6000610fa0610f04611ee5565b84610f9b8560036000610f15611ee5565b73ffffffffffffffffffffffffffffffffffffffff1673ffffffffffffffffffffffffffffffffffffffff16815260200190815260200160002060008973ffffffffffffffffffffffffffffffffffffffff1673ffffffffffffffffffffffffffffffffffffffff168152602001908152602001600020546124bb90919063ffffffff16565b611eed565b6001905092915050565b600d5481565b6000610fba611ee5565b9050600560008273ffffffffffffffffffffffffffffffffffffffff1673ffffffffffffffffffffffffffffffffffffffff16815260200190815260200160002060009054906101000a900460ff1615611049576040517f08c379a000000000000000000000000000000000000000000000000000000000815260040161104090614483565b60405180910390fd5b6000611054836124d1565b505050505090506110ad81600160008573ffffffffffffffffffffffffffffffffffffffff1673ffffffffffffffffffffffffffffffffffffffff1681526020019081526020016000205461252d90919063ffffffff16565b600160008473ffffffffffffffffffffffffffffffffffffffff1673ffffffffffffffffffffffffffffffffffffffff168152602001908152602001600020819055506111058160085461252d90919063ffffffff16565b600881905550611120836009546124bb90919063ffffffff16565b600981905550505050565b611133611ee5565b73ffffffffffffffffffffffffffffffffffffffff16611151611835565b73ffffffffffffffffffffffffffffffffffffffff16146111a7576040517f08c379a000000000000000000000000000000000000000000000000000000000815260040161119e90614403565b60405180910390fd5b6001600460008373ffffffffffffffffffffffffffffffffffffffff1673ffffffffffffffffffffffffffffffffffffffff16815260200190815260200160002060006101000a81548160ff02191690831515021790555050565b6000600754831115611249576040517f08c379a0000000000000000000000000000000000000000000000000000000008152600401611240906143c3565b60405180910390fd5b81611269576000611259846124d1565b5050505050905080915050611280565b6000611274846124d1565b50505050915050809150505b92915050565b7f000000000000000000000000000000000000000000000000000000000000000081565b601160019054906101000a900460ff1681565b6112c5611ee5565b73ffffffffffffffffffffffffffffffffffffffff166112e3611835565b73ffffffffffffffffffffffffffffffffffffffff1614611339576040517f08c379a000000000000000000000000000000000000000000000000000000000815260040161133090614403565b60405180910390fd5b600560008273ffffffffffffffffffffffffffffffffffffffff1673ffffffffffffffffffffffffffffffffffffffff16815260200190815260200160002060009054906101000a900460ff16156113c6576040517f08c379a00000000000000000000000000000000000000000000000000000000081526004016113bd906143a3565b60405180910390fd5b6000600160008373ffffffffffffffffffffffffffffffffffffffff1673ffffffffffffffffffffffffffffffffffffffff16815260200190815260200160002054111561149a57611456600160008373ffffffffffffffffffffffffffffffffffffffff1673ffffffffffffffffffffffffffffffffffffffff16815260200190815260200160002054610aa4565b600260008373ffffffffffffffffffffffffffffffffffffffff1673ffffffffffffffffffffffffffffffffffffffff168152602001908152602001600020819055505b6001600560008373ffffffffffffffffffffffffffffffffffffffff1673ffffffffffffffffffffffffffffffffffffffff16815260200190815260200160002060006101000a81548160ff0219169083151502179055506006819080600181540180825580915050600190039060005260206000200160009091909190916101000a81548173ffffffffffffffffffffffffffffffffffffffff021916908373ffffffffffffffffffffffffffffffffffffffff16021790555050565b6000600460008373ffffffffffffffffffffffffffffffffffffffff1673ffffffffffffffffffffffffffffffffffffffff16815260200190815260200160002060009054906101000a900460ff169050919050565b600f5481565b6000600560008373ffffffffffffffffffffffffffffffffffffffff1673ffffffffffffffffffffffffffffffffffffffff16815260200190815260200160002060009054906101000a900460ff161561164f57600260008373ffffffffffffffffffffffffffffffffffffffff1673ffffffffffffffffffffffffffffffffffffffff16815260200190815260200160002054905061169a565b611697600160008473ffffffffffffffffffffffffffffffffffffffff1673ffffffffffffffffffffffffffffffffffffffff16815260200190815260200160002054610aa4565b90505b919050565b6116a7611ee5565b73ffffffffffffffffffffffffffffffffffffffff166116c5611835565b73ffffffffffffffffffffffffffffffffffffffff161461171b576040517f08c379a000000000000000000000000000000000000000000000000000000000815260040161171290614403565b60405180910390fd5b600073ffffffffffffffffffffffffffffffffffffffff1660008054906101000a900473ffffffffffffffffffffffffffffffffffffffff1673ffffffffffffffffffffffffffffffffffffffff167f8be0079c531659141344cd1fd0a4f28419497f9722a3daafe3b4186f6b6457e060405160405180910390a360008060006101000a81548173ffffffffffffffffffffffffffffffffffffffff021916908373ffffffffffffffffffffffffffffffffffffffff160217905550565b60125481565b6000600560008373ffffffffffffffffffffffffffffffffffffffff1673ffffffffffffffffffffffffffffffffffffffff16815260200190815260200160002060009054906101000a900460ff169050919050565b60008060009054906101000a900473ffffffffffffffffffffffffffffffffffffffff16905090565b611866611ee5565b73ffffffffffffffffffffffffffffffffffffffff16611884611835565b73ffffffffffffffffffffffffffffffffffffffff16146118da576040517f08c379a00000000000000000000000000000000000000000000000000000000081526004016118d190614403565b60405180910390fd5b80600f8190555050565b6060600b80546118f390614792565b80601f016020809104026020016040519081016040528092919081815260200182805461191f90614792565b801561196c5780601f106119415761010080835404028352916020019161196c565b820191906000526020600020905b81548152906001019060200180831161194f57829003601f168201915b5050505050905090565b6000611a39611983611ee5565b84611a3485604051806060016040528060258152602001614c5b60259139600360006119ad611ee5565b73ffffffffffffffffffffffffffffffffffffffff1673ffffffffffffffffffffffffffffffffffffffff16815260200190815260200160002060008a73ffffffffffffffffffffffffffffffffffffffff1673ffffffffffffffffffffffffffffffffffffffff168152602001908152602001600020546124259092919063ffffffff16565b611eed565b6001905092915050565b6000611a57611a50611ee5565b84846120b8565b6001905092915050565b611a69611ee5565b73ffffffffffffffffffffffffffffffffffffffff16611a87611835565b73ffffffffffffffffffffffffffffffffffffffff1614611add576040517f08c379a0000000000000000000000000000000000000000000000000000000008152600401611ad490614403565b60405180910390fd5b80601160016101000a81548160ff0219169083151502179055507f53726dfcaf90650aa7eb35524f4d3220f07413c8d6cb404cc8c18bf5591bc15981604051611b2691906142cb565b60405180910390a150565b611b39611ee5565b73ffffffffffffffffffffffffffffffffffffffff16611b57611835565b73ffffffffffffffffffffffffffffffffffffffff1614611bad576040517f08c379a0000000000000000000000000000000000000000000000000000000008152600401611ba490614403565b60405180910390fd5b611bd56064611bc78360075461254390919063ffffffff16565b6124a590919063ffffffff16565b60128190555050565b6000600360008473ffffffffffffffffffffffffffffffffffffffff1673ffffffffffffffffffffffffffffffffffffffff16815260200190815260200160002060008373ffffffffffffffffffffffffffffffffffffffff1673ffffffffffffffffffffffffffffffffffffffff16815260200190815260200160002054905092915050565b611c6d611ee5565b73ffffffffffffffffffffffffffffffffffffffff16611c8b611835565b73ffffffffffffffffffffffffffffffffffffffff1614611ce1576040517f08c379a0000000000000000000000000000000000000000000000000000000008152600401611cd890614403565b60405180910390fd5b6000600460008373ffffffffffffffffffffffffffffffffffffffff1673ffffffffffffffffffffffffffffffffffffffff16815260200190815260200160002060006101000a81548160ff02191690831515021790555050565b611d44611ee5565b73ffffffffffffffffffffffffffffffffffffffff16611d62611835565b73ffffffffffffffffffffffffffffffffffffffff1614611db8576040517f08c379a0000000000000000000000000000000000000000000000000000000008152600401611daf90614403565b60405180910390fd5b600073ffffffffffffffffffffffffffffffffffffffff168173ffffffffffffffffffffffffffffffffffffffff161415611e28576040517f08c379a0000000000000000000000000000000000000000000000000000000008152600401611e1f90614363565b60405180910390fd5b8073ffffffffffffffffffffffffffffffffffffffff1660008054906101000a900473ffffffffffffffffffffffffffffffffffffffff1673ffffffffffffffffffffffffffffffffffffffff167f8be0079c531659141344cd1fd0a4f28419497f9722a3daafe3b4186f6b6457e060405160405180910390a3806000806101000a81548173ffffffffffffffffffffffffffffffffffffffff021916908373ffffffffffffffffffffffffffffffffffffffff16021790555050565b600033905090565b600073ffffffffffffffffffffffffffffffffffffffff168373ffffffffffffffffffffffffffffffffffffffff161415611f5d576040517f08c379a0000000000000000000000000000000000000000000000000000000008152600401611f5490614463565b60405180910390fd5b600073ffffffffffffffffffffffffffffffffffffffff168273ffffffffffffffffffffffffffffffffffffffff161415611fcd576040517f08c379a0000000000000000000000000000000000000000000000000000000008152600401611fc490614383565b60405180910390fd5b80600360008573ffffffffffffffffffffffffffffffffffffffff1673ffffffffffffffffffffffffffffffffffffffff16815260200190815260200160002060008473ffffffffffffffffffffffffffffffffffffffff1673ffffffffffffffffffffffffffffffffffffffff168152602001908152602001600020819055508173ffffffffffffffffffffffffffffffffffffffff168373ffffffffffffffffffffffffffffffffffffffff167f8c5be1e5ebec7d5bd14f71427d1e84f3dd0314c0f7b2291e5b200ac8c7c3b925836040516120ab91906144a3565b60405180910390a3505050565b600073ffffffffffffffffffffffffffffffffffffffff168373ffffffffffffffffffffffffffffffffffffffff161415612128576040517f08c379a000000000000000000000000000000000000000000000000000000000815260040161211f90614443565b60405180910390fd5b600073ffffffffffffffffffffffffffffffffffffffff168273ffffffffffffffffffffffffffffffffffffffff161415612198576040517f08c379a000000000000000000000000000000000000000000000000000000000815260040161218f90614323565b60405180910390fd5b600081116121db576040517f08c379a00000000000000000000000000000000000000000000000000000000081526004016121d290614423565b60405180910390fd5b6121e3611835565b73ffffffffffffffffffffffffffffffffffffffff168373ffffffffffffffffffffffffffffffffffffffff16141580156122515750612221611835565b73ffffffffffffffffffffffffffffffffffffffff168273ffffffffffffffffffffffffffffffffffffffff1614155b1561229c5760125481111561229b576040517f08c379a0000000000000000000000000000000000000000000000000000000008152600401612292906143e3565b60405180910390fd5b5b60006122a7306115b4565b905060125481106122b85760125490505b600060135482101590508080156122dc5750601160009054906101000a900460ff16155b801561233457507f000000000000000000000000000000000000000000000000000000000000000073ffffffffffffffffffffffffffffffffffffffff168573ffffffffffffffffffffffffffffffffffffffff1614155b801561234c5750601160019054906101000a900460ff165b1561236057601354915061235f82612559565b5b600060019050600460008773ffffffffffffffffffffffffffffffffffffffff1673ffffffffffffffffffffffffffffffffffffffff16815260200190815260200160002060009054906101000a900460ff16806124075750600460008673ffffffffffffffffffffffffffffffffffffffff1673ffffffffffffffffffffffffffffffffffffffff16815260200190815260200160002060009054906101000a900460ff165b1561241157600090505b61241d8686868461262f565b505050505050565b600083831115829061246d576040517f08c379a00000000000000000000000000000000000000000000000000000000081526004016124649190614301565b60405180910390fd5b5082840390509392505050565b6000806000612487612940565b9150915061249e81836124a590919063ffffffff16565b9250505090565b600081836124b39190614615565b905092915050565b600081836124c991906145bf565b905092915050565b60008060008060008060008060006124e88a612c8b565b92509250925060008060006125068d868661250161247a565b612ce5565b9250925092508282828888889b509b509b509b509b509b5050505050505091939550919395565b6000818361253b91906146a0565b905092915050565b600081836125519190614646565b905092915050565b6001601160006101000a81548160ff021916908315150217905550600061258a6002836124a590919063ffffffff16565b905060006125a1828461252d90919063ffffffff16565b905060004790506125b183612d6e565b60006125c6824761252d90919063ffffffff16565b90506125d2838261302c565b7f17bbfb9a6069321b6ded73bd96327c9e6b7212a5cd51ff219cd61370acafb56184828560405161260593929190614518565b60405180910390a1505050506000601160006101000a81548160ff02191690831515021790555050565b8061263d5761263c61311c565b5b600560008573ffffffffffffffffffffffffffffffffffffffff1673ffffffffffffffffffffffffffffffffffffffff16815260200190815260200160002060009054906101000a900460ff1680156126e05750600560008473ffffffffffffffffffffffffffffffffffffffff1673ffffffffffffffffffffffffffffffffffffffff16815260200190815260200160002060009054906101000a900460ff16155b156126f5576126f084848461315f565b61292c565b600560008573ffffffffffffffffffffffffffffffffffffffff1673ffffffffffffffffffffffffffffffffffffffff16815260200190815260200160002060009054906101000a900460ff161580156127985750600560008473ffffffffffffffffffffffffffffffffffffffff1673ffffffffffffffffffffffffffffffffffffffff16815260200190815260200160002060009054906101000a900460ff165b156127ad576127a88484846133bf565b61292b565b600560008573ffffffffffffffffffffffffffffffffffffffff1673ffffffffffffffffffffffffffffffffffffffff16815260200190815260200160002060009054906101000a900460ff161580156128515750600560008473ffffffffffffffffffffffffffffffffffffffff1673ffffffffffffffffffffffffffffffffffffffff16815260200190815260200160002060009054906101000a900460ff16155b156128665761286184848461361f565b61292a565b600560008573ffffffffffffffffffffffffffffffffffffffff1673ffffffffffffffffffffffffffffffffffffffff16815260200190815260200160002060009054906101000a900460ff1680156129085750600560008473ffffffffffffffffffffffffffffffffffffffff1673ffffffffffffffffffffffffffffffffffffffff16815260200190815260200160002060009054906101000a900460ff165b1561291d576129188484846137ea565b612929565b61292884848461361f565b5b5b5b5b8061293a57612939613adf565b5b50505050565b600080600060085490506000600754905060005b600680549050811015612c4e578260016000600684815481106129a0577f4e487b7100000000000000000000000000000000000000000000000000000000600052603260045260246000fd5b9060005260206000200160009054906101000a900473ffffffffffffffffffffffffffffffffffffffff1673ffffffffffffffffffffffffffffffffffffffff1673ffffffffffffffffffffffffffffffffffffffff168152602001908152602001600020541180612ab45750816002600060068481548110612a4c577f4e487b7100000000000000000000000000000000000000000000000000000000600052603260045260246000fd5b9060005260206000200160009054906101000a900473ffffffffffffffffffffffffffffffffffffffff1673ffffffffffffffffffffffffffffffffffffffff1673ffffffffffffffffffffffffffffffffffffffff16815260200190815260200160002054115b15612acb5760085460075494509450505050612c87565b612b816001600060068481548110612b0c577f4e487b7100000000000000000000000000000000000000000000000000000000600052603260045260246000fd5b9060005260206000200160009054906101000a900473ffffffffffffffffffffffffffffffffffffffff1673ffffffffffffffffffffffffffffffffffffffff1673ffffffffffffffffffffffffffffffffffffffff168152602001908152602001600020548461252d90919063ffffffff16565b9250612c396002600060068481548110612bc4577f4e487b7100000000000000000000000000000000000000000000000000000000600052603260045260246000fd5b9060005260206000200160009054906101000a900473ffffffffffffffffffffffffffffffffffffffff1673ffffffffffffffffffffffffffffffffffffffff1673ffffffffffffffffffffffffffffffffffffffff168152602001908152602001600020548361252d90919063ffffffff16565b91508080612c46906147c4565b915050612954565b50612c666007546008546124a590919063ffffffff16565b821015612c7e57600854600754935093505050612c87565b81819350935050505b9091565b600080600080612c9a85613af3565b90506000612ca786613b24565b90506000612cd082612cc2858a61252d90919063ffffffff16565b61252d90919063ffffffff16565b90508083839550955095505050509193909250565b600080600080612cfe858961254390919063ffffffff16565b90506000612d15868961254390919063ffffffff16565b90506000612d2c878961254390919063ffffffff16565b90506000612d5582612d47858761252d90919063ffffffff16565b61252d90919063ffffffff16565b9050838184965096509650505050509450945094915050565b6000600267ffffffffffffffff811115612db1577f4e487b7100000000000000000000000000000000000000000000000000000000600052604160045260246000fd5b604051908082528060200260200182016040528015612ddf5781602001602082028036833780820191505090505b5090503081600081518110612e1d577f4e487b7100000000000000000000000000000000000000000000000000000000600052603260045260246000fd5b602002602001019073ffffffffffffffffffffffffffffffffffffffff16908173ffffffffffffffffffffffffffffffffffffffff16815250507f000000000000000000000000000000000000000000000000000000000000000073ffffffffffffffffffffffffffffffffffffffff1663ad5c46486040518163ffffffff1660e01b815260040160206040518083038186803b158015612ebd57600080fd5b505afa158015612ed1573d6000803e3d6000fd5b505050506040513d601f19601f82011682018060405250810190612ef59190613dc6565b81600181518110612f2f577f4e487b7100000000000000000000000000000000000000000000000000000000600052603260045260246000fd5b602002602001019073ffffffffffffffffffffffffffffffffffffffff16908173ffffffffffffffffffffffffffffffffffffffff1681525050612f94307f000000000000000000000000000000000000000000000000000000000000000084611eed565b7f000000000000000000000000000000000000000000000000000000000000000073ffffffffffffffffffffffffffffffffffffffff1663791ac9478360008430426040518663ffffffff1660e01b8152600401612ff69594939291906144be565b600060405180830381600087803b15801561301057600080fd5b505af1158015613024573d6000803e3d6000fd5b505050505050565b613057307f000000000000000000000000000000000000000000000000000000000000000084611eed565b7f000000000000000000000000000000000000000000000000000000000000000073ffffffffffffffffffffffffffffffffffffffff1663f305d7198230856000806130a1611835565b426040518863ffffffff1660e01b81526004016130c39695949392919061426a565b6060604051808303818588803b1580156130dc57600080fd5b505af11580156130f0573d6000803e3d6000fd5b50505050506040513d601f19601f820116820180604052508101906131159190613f44565b5050505050565b6000600d5414801561313057506000600f54145b1561313a5761315d565b600d54600e81905550600f546010819055506000600d819055506000600f819055505b565b600080600080600080613171876124d1565b9550955095509550955095506131cf87600260008c73ffffffffffffffffffffffffffffffffffffffff1673ffffffffffffffffffffffffffffffffffffffff1681526020019081526020016000205461252d90919063ffffffff16565b600260008b73ffffffffffffffffffffffffffffffffffffffff1673ffffffffffffffffffffffffffffffffffffffff1681526020019081526020016000208190555061326486600160008c73ffffffffffffffffffffffffffffffffffffffff1673ffffffffffffffffffffffffffffffffffffffff1681526020019081526020016000205461252d90919063ffffffff16565b600160008b73ffffffffffffffffffffffffffffffffffffffff1673ffffffffffffffffffffffffffffffffffffffff168152602001908152602001600020819055506132f985600160008b73ffffffffffffffffffffffffffffffffffffffff1673ffffffffffffffffffffffffffffffffffffffff168152602001908152602001600020546124bb90919063ffffffff16565b600160008a73ffffffffffffffffffffffffffffffffffffffff1673ffffffffffffffffffffffffffffffffffffffff1681526020019081526020016000208190555061334581613b55565b61334f8483613cfa565b8773ffffffffffffffffffffffffffffffffffffffff168973ffffffffffffffffffffffffffffffffffffffff167fddf252ad1be2c89b69c2b068fc378daa952ba7f163c4a11628f55a4df523b3ef856040516133ac91906144a3565b60405180910390a3505050505050505050565b6000806000806000806133d1876124d1565b95509550955095509550955061342f86600160008c73ffffffffffffffffffffffffffffffffffffffff1673ffffffffffffffffffffffffffffffffffffffff1681526020019081526020016000205461252d90919063ffffffff16565b600160008b73ffffffffffffffffffffffffffffffffffffffff1673ffffffffffffffffffffffffffffffffffffffff168152602001908152602001600020819055506134c483600260008b73ffffffffffffffffffffffffffffffffffffffff1673ffffffffffffffffffffffffffffffffffffffff168152602001908152602001600020546124bb90919063ffffffff16565b600260008a73ffffffffffffffffffffffffffffffffffffffff1673ffffffffffffffffffffffffffffffffffffffff1681526020019081526020016000208190555061355985600160008b73ffffffffffffffffffffffffffffffffffffffff1673ffffffffffffffffffffffffffffffffffffffff168152602001908152602001600020546124bb90919063ffffffff16565b600160008a73ffffffffffffffffffffffffffffffffffffffff1673ffffffffffffffffffffffffffffffffffffffff168152602001908152602001600020819055506135a581613b55565b6135af8483613cfa565b8773ffffffffffffffffffffffffffffffffffffffff168973ffffffffffffffffffffffffffffffffffffffff167fddf252ad1be2c89b69c2b068fc378daa952ba7f163c4a11628f55a4df523b3ef8560405161360c91906144a3565b60405180910390a3505050505050505050565b600080600080600080613631876124d1565b95509550955095509550955061368f86600160008c73ffffffffffffffffffffffffffffffffffffffff1673ffffffffffffffffffffffffffffffffffffffff1681526020019081526020016000205461252d90919063ffffffff16565b600160008b73ffffffffffffffffffffffffffffffffffffffff1673ffffffffffffffffffffffffffffffffffffffff1681526020019081526020016000208190555061372485600160008b73ffffffffffffffffffffffffffffffffffffffff1673ffffffffffffffffffffffffffffffffffffffff168152602001908152602001600020546124bb90919063ffffffff16565b600160008a73ffffffffffffffffffffffffffffffffffffffff1673ffffffffffffffffffffffffffffffffffffffff1681526020019081526020016000208190555061377081613b55565b61377a8483613cfa565b8773ffffffffffffffffffffffffffffffffffffffff168973ffffffffffffffffffffffffffffffffffffffff167fddf252ad1be2c89b69c2b068fc378daa952ba7f163c4a11628f55a4df523b3ef856040516137d791906144a3565b60405180910390a3505050505050505050565b6000806000806000806137fc876124d1565b95509550955095509550955061385a87600260008c73ffffffffffffffffffffffffffffffffffffffff1673ffffffffffffffffffffffffffffffffffffffff1681526020019081526020016000205461252d90919063ffffffff16565b600260008b73ffffffffffffffffffffffffffffffffffffffff1673ffffffffffffffffffffffffffffffffffffffff168152602001908152602001600020819055506138ef86600160008c73ffffffffffffffffffffffffffffffffffffffff1673ffffffffffffffffffffffffffffffffffffffff1681526020019081526020016000205461252d90919063ffffffff16565b600160008b73ffffffffffffffffffffffffffffffffffffffff1673ffffffffffffffffffffffffffffffffffffffff1681526020019081526020016000208190555061398483600260008b73ffffffffffffffffffffffffffffffffffffffff1673ffffffffffffffffffffffffffffffffffffffff168152602001908152602001600020546124bb90919063ffffffff16565b600260008a73ffffffffffffffffffffffffffffffffffffffff1673ffffffffffffffffffffffffffffffffffffffff16815260200190815260200160002081905550613a1985600160008b73ffffffffffffffffffffffffffffffffffffffff1673ffffffffffffffffffffffffffffffffffffffff168152602001908152602001600020546124bb90919063ffffffff16565b600160008a73ffffffffffffffffffffffffffffffffffffffff1673ffffffffffffffffffffffffffffffffffffffff16815260200190815260200160002081905550613a6581613b55565b613a6f8483613cfa565b8773ffffffffffffffffffffffffffffffffffffffff168973ffffffffffffffffffffffffffffffffffffffff167fddf252ad1be2c89b69c2b068fc378daa952ba7f163c4a11628f55a4df523b3ef85604051613acc91906144a3565b60405180910390a3505050505050505050565b600e54600d81905550601054600f81905550565b6000613b1d6064613b0f600d548561254390919063ffffffff16565b6124a590919063ffffffff16565b9050919050565b6000613b4e6064613b40600f548561254390919063ffffffff16565b6124a590919063ffffffff16565b9050919050565b6000613b5f61247a565b90506000613b76828461254390919063ffffffff16565b9050613bca81600160003073ffffffffffffffffffffffffffffffffffffffff1673ffffffffffffffffffffffffffffffffffffffff168152602001908152602001600020546124bb90919063ffffffff16565b600160003073ffffffffffffffffffffffffffffffffffffffff1673ffffffffffffffffffffffffffffffffffffffff16815260200190815260200160002081905550600560003073ffffffffffffffffffffffffffffffffffffffff1673ffffffffffffffffffffffffffffffffffffffff16815260200190815260200160002060009054906101000a900460ff1615613cf557613cb183600260003073ffffffffffffffffffffffffffffffffffffffff1673ffffffffffffffffffffffffffffffffffffffff168152602001908152602001600020546124bb90919063ffffffff16565b600260003073ffffffffffffffffffffffffffffffffffffffff1673ffffffffffffffffffffffffffffffffffffffff168152602001908152602001600020819055505b505050565b613d0f8260085461252d90919063ffffffff16565b600881905550613d2a816009546124bb90919063ffffffff16565b6009819055505050565b600081359050613d4381614bed565b92915050565b600081519050613d5881614bed565b92915050565b600081359050613d6d81614c04565b92915050565b600081359050613d8281614c1b565b92915050565b600081519050613d9781614c1b565b92915050565b600060208284031215613daf57600080fd5b6000613dbd84828501613d34565b91505092915050565b600060208284031215613dd857600080fd5b6000613de684828501613d49565b91505092915050565b60008060408385031215613e0257600080fd5b6000613e1085828601613d34565b9250506020613e2185828601613d34565b9150509250929050565b600080600060608486031215613e4057600080fd5b6000613e4e86828701613d34565b9350506020613e5f86828701613d34565b9250506040613e7086828701613d73565b9150509250925092565b60008060408385031215613e8d57600080fd5b6000613e9b85828601613d34565b9250506020613eac85828601613d73565b9150509250929050565b600060208284031215613ec857600080fd5b6000613ed684828501613d5e565b91505092915050565b600060208284031215613ef157600080fd5b6000613eff84828501613d73565b91505092915050565b60008060408385031215613f1b57600080fd5b6000613f2985828601613d73565b9250506020613f3a85828601613d5e565b9150509250929050565b600080600060608486031215613f5957600080fd5b6000613f6786828701613d88565b9350506020613f7886828701613d88565b9250506040613f8986828701613d88565b9150509250925092565b6000613f9f8383613fab565b60208301905092915050565b613fb4816146d4565b82525050565b613fc3816146d4565b82525050565b6000613fd48261457a565b613fde818561459d565b9350613fe98361456a565b8060005b8381101561401a5781516140018882613f93565b975061400c83614590565b925050600181019050613fed565b5085935050505092915050565b614030816146e6565b82525050565b61403f81614729565b82525050565b61404e8161474d565b82525050565b600061405f82614585565b61406981856145ae565b935061407981856020860161475f565b6140828161489a565b840191505092915050565b600061409a6023836145ae565b91506140a5826148ab565b604082019050919050565b60006140bd602a836145ae565b91506140c8826148fa565b604082019050919050565b60006140e06026836145ae565b91506140eb82614949565b604082019050919050565b60006141036022836145ae565b915061410e82614998565b604082019050919050565b6000614126601b836145ae565b9150614131826149e7565b602082019050919050565b6000614149601f836145ae565b915061415482614a10565b602082019050919050565b600061416c6028836145ae565b915061417782614a39565b604082019050919050565b600061418f6020836145ae565b915061419a82614a88565b602082019050919050565b60006141b26029836145ae565b91506141bd82614ab1565b604082019050919050565b60006141d56025836145ae565b91506141e082614b00565b604082019050919050565b60006141f86024836145ae565b915061420382614b4f565b604082019050919050565b600061421b602c836145ae565b915061422682614b9e565b604082019050919050565b61423a81614712565b82525050565b6142498161471c565b82525050565b60006020820190506142646000830184613fba565b92915050565b600060c08201905061427f6000830189613fba565b61428c6020830188614231565b6142996040830187614045565b6142a66060830186614045565b6142b36080830185613fba565b6142c060a0830184614231565b979650505050505050565b60006020820190506142e06000830184614027565b92915050565b60006020820190506142fb6000830184614036565b92915050565b6000602082019050818103600083015261431b8184614054565b905092915050565b6000602082019050818103600083015261433c8161408d565b9050919050565b6000602082019050818103600083015261435c816140b0565b9050919050565b6000602082019050818103600083015261437c816140d3565b9050919050565b6000602082019050818103600083015261439c816140f6565b9050919050565b600060208201905081810360008301526143bc81614119565b9050919050565b600060208201905081810360008301526143dc8161413c565b9050919050565b600060208201905081810360008301526143fc8161415f565b9050919050565b6000602082019050818103600083015261441c81614182565b9050919050565b6000602082019050818103600083015261443c816141a5565b9050919050565b6000602082019050818103600083015261445c816141c8565b9050919050565b6000602082019050818103600083015261447c816141eb565b9050919050565b6000602082019050818103600083015261449c8161420e565b9050919050565b60006020820190506144b86000830184614231565b92915050565b600060a0820190506144d36000830188614231565b6144e06020830187614045565b81810360408301526144f28186613fc9565b90506145016060830185613fba565b61450e6080830184614231565b9695505050505050565b600060608201905061452d6000830186614231565b61453a6020830185614231565b6145476040830184614231565b949350505050565b60006020820190506145646000830184614240565b92915050565b6000819050602082019050919050565b600081519050919050565b600081519050919050565b6000602082019050919050565b600082825260208201905092915050565b600082825260208201905092915050565b60006145ca82614712565b91506145d583614712565b9250827fffffffffffffffffffffffffffffffffffffffffffffffffffffffffffffffff0382111561460a5761460961480d565b5b828201905092915050565b600061462082614712565b915061462b83614712565b92508261463b5761463a61483c565b5b828204905092915050565b600061465182614712565b915061465c83614712565b9250817fffffffffffffffffffffffffffffffffffffffffffffffffffffffffffffffff04831182151516156146955761469461480d565b5b828202905092915050565b60006146ab82614712565b91506146b683614712565b9250828210156146c9576146c861480d565b5b828203905092915050565b60006146df826146f2565b9050919050565b60008115159050919050565b600073ffffffffffffffffffffffffffffffffffffffff82169050919050565b6000819050919050565b600060ff82169050919050565b60006147348261473b565b9050919050565b6000614746826146f2565b9050919050565b600061475882614712565b9050919050565b60005b8381101561477d578082015181840152602081019050614762565b8381111561478c576000848401525b50505050565b600060028204905060018216806147aa57607f821691505b602082108114156147be576147bd61486b565b5b50919050565b60006147cf82614712565b91507fffffffffffffffffffffffffffffffffffffffffffffffffffffffffffffffff8214156148025761480161480d565b5b600182019050919050565b7f4e487b7100000000000000000000000000000000000000000000000000000000600052601160045260246000fd5b7f4e487b7100000000000000000000000000000000000000000000000000000000600052601260045260246000fd5b7f4e487b7100000000000000000000000000000000000000000000000000000000600052602260045260246000fd5b6000601f19601f8301169050919050565b7f45524332303a207472616e7366657220746f20746865207a65726f206164647260008201527f6573730000000000000000000000000000000000000000000000000000000000602082015250565b7f416d6f756e74206d757374206265206c657373207468616e20746f74616c207260008201527f65666c656374696f6e7300000000000000000000000000000000000000000000602082015250565b7f4f776e61626c653a206e6577206f776e657220697320746865207a65726f206160008201527f6464726573730000000000000000000000000000000000000000000000000000602082015250565b7f45524332303a20617070726f766520746f20746865207a65726f20616464726560008201527f7373000000000000000000000000000000000000000000000000000000000000602082015250565b7f4163636f756e7420697320616c7265616479206578636c756465640000000000600082015250565b7f416d6f756e74206d757374206265206c657373207468616e20737570706c7900600082015250565b7f5472616e7366657220616d6f756e74206578636565647320746865206d61785460008201527f78416d6f756e742e000000000000000000000000000000000000000000000000602082015250565b7f4f776e61626c653a2063616c6c6572206973206e6f7420746865206f776e6572600082015250565b7f5472616e7366657220616d6f756e74206d75737420626520677265617465722060008201527f7468616e207a65726f0000000000000000000000000000000000000000000000602082015250565b7f45524332303a207472616e736665722066726f6d20746865207a65726f20616460008201527f6472657373000000000000000000000000000000000000000000000000000000602082015250565b7f45524332303a20617070726f76652066726f6d20746865207a65726f2061646460008201527f7265737300000000000000000000000000000000000000000000000000000000602082015250565b7f4578636c75646564206164647265737365732063616e6e6f742063616c6c207460008201527f6869732066756e6374696f6e0000000000000000000000000000000000000000602082015250565b614bf6816146d4565b8114614c0157600080fd5b50565b614c0d816146e6565b8114614c1857600080fd5b50565b614c2481614712565b8114614c2f57600080fd5b5056fe45524332303a207472616e7366657220616d6f756e74206578636565647320616c6c6f77616e636545524332303a2064656372656173656420616c6c6f77616e63652062656c6f77207a65726fa2646970667358221220ffdb584d0f384616edbe2bb62cbf764a0ea41f5e3b257a0492ec3ea9ac9a09d864736f6c63430008010033",
  "immutableReferences": {
    "846": [
      {
        "length": 32,
        "start": 2463
      },
      {
        "length": 32,
        "start": 11865
      },
      {
        "length": 32,
        "start": 12143
      },
      {
        "length": 32,
        "start": 12182
      },
      {
        "length": 32,
        "start": 12338
      },
      {
        "length": 32,
        "start": 12377
      }
    ],
    "848": [
      {
        "length": 32,
        "start": 4744
      },
      {
        "length": 32,
        "start": 8933
      }
    ]
  },
  "source": "pragma solidity >=0.4.22 <0.9.0;\r\n\r\nimport \"@openzeppelin/contracts/utils/Context.sol\";\r\nimport \"@openzeppelin/contracts/utils/Address.sol\";\r\nimport \"@openzeppelin/contracts/utils/math/SafeMath.sol\";\r\nimport \"@openzeppelin/contracts/token/ERC20/IERC20.sol\";\r\nimport \"@openzeppelin/contracts/access/Ownable.sol\";\r\n\r\n\r\n\r\ninterface IUniswapV2Factory {\r\n    event PairCreated(address indexed token0, address indexed token1, address pair, uint);\r\n\r\n    function feeTo() external view returns (address);\r\n    function feeToSetter() external view returns (address);\r\n\r\n    function getPair(address tokenA, address tokenB) external view returns (address pair);\r\n    function allPairs(uint) external view returns (address pair);\r\n    function allPairsLength() external view returns (uint);\r\n\r\n    function createPair(address tokenA, address tokenB) external returns (address pair);\r\n\r\n    function setFeeTo(address) external;\r\n    function setFeeToSetter(address) external;\r\n}\r\n\r\n\r\n// pragma solidity >=0.5.0;\r\n\r\ninterface IUniswapV2Pair {\r\n    event Approval(address indexed owner, address indexed spender, uint value);\r\n    event Transfer(address indexed from, address indexed to, uint value);\r\n\r\n    function name() external pure returns (string memory);\r\n    function symbol() external pure returns (string memory);\r\n    function decimals() external pure returns (uint8);\r\n    function totalSupply() external view returns (uint);\r\n    function balanceOf(address owner) external view returns (uint);\r\n    function allowance(address owner, address spender) external view returns (uint);\r\n\r\n    function approve(address spender, uint value) external returns (bool);\r\n    function transfer(address to, uint value) external returns (bool);\r\n    function transferFrom(address from, address to, uint value) external returns (bool);\r\n\r\n    function DOMAIN_SEPARATOR() external view returns (bytes32);\r\n    function PERMIT_TYPEHASH() external pure returns (bytes32);\r\n    function nonces(address owner) external view returns (uint);\r\n\r\n    function permit(address owner, address spender, uint value, uint deadline, uint8 v, bytes32 r, bytes32 s) external;\r\n\r\n    event Mint(address indexed sender, uint amount0, uint amount1);\r\n    event Burn(address indexed sender, uint amount0, uint amount1, address indexed to);\r\n    event Swap(\r\n        address indexed sender,\r\n        uint amount0In,\r\n        uint amount1In,\r\n        uint amount0Out,\r\n        uint amount1Out,\r\n        address indexed to\r\n    );\r\n    event Sync(uint112 reserve0, uint112 reserve1);\r\n\r\n    function MINIMUM_LIQUIDITY() external pure returns (uint);\r\n    function factory() external view returns (address);\r\n    function token0() external view returns (address);\r\n    function token1() external view returns (address);\r\n    function getReserves() external view returns (uint112 reserve0, uint112 reserve1, uint32 blockTimestampLast);\r\n    function price0CumulativeLast() external view returns (uint);\r\n    function price1CumulativeLast() external view returns (uint);\r\n    function kLast() external view returns (uint);\r\n\r\n    function mint(address to) external returns (uint liquidity);\r\n    function burn(address to) external returns (uint amount0, uint amount1);\r\n    function swap(uint amount0Out, uint amount1Out, address to, bytes calldata data) external;\r\n    function skim(address to) external;\r\n    function sync() external;\r\n\r\n    function initialize(address, address) external;\r\n}\r\n\r\ninterface IUniswapV2Router01 {\r\n    function factory() external pure returns (address);\r\n    function WETH() external pure returns (address);\r\n\r\n    function addLiquidity(\r\n        address tokenA,\r\n        address tokenB,\r\n        uint amountADesired,\r\n        uint amountBDesired,\r\n        uint amountAMin,\r\n        uint amountBMin,\r\n        address to,\r\n        uint deadline\r\n    ) external returns (uint amountA, uint amountB, uint liquidity);\r\n    function addLiquidityETH(\r\n        address token,\r\n        uint amountTokenDesired,\r\n        uint amountTokenMin,\r\n        uint amountETHMin,\r\n        address to,\r\n        uint deadline\r\n    ) external payable returns (uint amountToken, uint amountETH, uint liquidity);\r\n    function removeLiquidity(\r\n        address tokenA,\r\n        address tokenB,\r\n        uint liquidity,\r\n        uint amountAMin,\r\n        uint amountBMin,\r\n        address to,\r\n        uint deadline\r\n    ) external returns (uint amountA, uint amountB);\r\n    function removeLiquidityETH(\r\n        address token,\r\n        uint liquidity,\r\n        uint amountTokenMin,\r\n        uint amountETHMin,\r\n        address to,\r\n        uint deadline\r\n    ) external returns (uint amountToken, uint amountETH);\r\n    function removeLiquidityWithPermit(\r\n        address tokenA,\r\n        address tokenB,\r\n        uint liquidity,\r\n        uint amountAMin,\r\n        uint amountBMin,\r\n        address to,\r\n        uint deadline,\r\n        bool approveMax, uint8 v, bytes32 r, bytes32 s\r\n    ) external returns (uint amountA, uint amountB);\r\n    function removeLiquidityETHWithPermit(\r\n        address token,\r\n        uint liquidity,\r\n        uint amountTokenMin,\r\n        uint amountETHMin,\r\n        address to,\r\n        uint deadline,\r\n        bool approveMax, uint8 v, bytes32 r, bytes32 s\r\n    ) external returns (uint amountToken, uint amountETH);\r\n    function swapExactTokensForTokens(\r\n        uint amountIn,\r\n        uint amountOutMin,\r\n        address[] calldata path,\r\n        address to,\r\n        uint deadline\r\n    ) external returns (uint[] memory amounts);\r\n    function swapTokensForExactTokens(\r\n        uint amountOut,\r\n        uint amountInMax,\r\n        address[] calldata path,\r\n        address to,\r\n        uint deadline\r\n    ) external returns (uint[] memory amounts);\r\n    function swapExactETHForTokens(uint amountOutMin, address[] calldata path, address to, uint deadline)\r\n        external\r\n        payable\r\n        returns (uint[] memory amounts);\r\n    function swapTokensForExactETH(uint amountOut, uint amountInMax, address[] calldata path, address to, uint deadline)\r\n        external\r\n        returns (uint[] memory amounts);\r\n    function swapExactTokensForETH(uint amountIn, uint amountOutMin, address[] calldata path, address to, uint deadline)\r\n        external\r\n        returns (uint[] memory amounts);\r\n    function swapETHForExactTokens(uint amountOut, address[] calldata path, address to, uint deadline)\r\n        external\r\n        payable\r\n        returns (uint[] memory amounts);\r\n\r\n    function quote(uint amountA, uint reserveA, uint reserveB) external pure returns (uint amountB);\r\n    function getAmountOut(uint amountIn, uint reserveIn, uint reserveOut) external pure returns (uint amountOut);\r\n    function getAmountIn(uint amountOut, uint reserveIn, uint reserveOut) external pure returns (uint amountIn);\r\n    function getAmountsOut(uint amountIn, address[] calldata path) external view returns (uint[] memory amounts);\r\n    function getAmountsIn(uint amountOut, address[] calldata path) external view returns (uint[] memory amounts);\r\n}\r\n\r\n\r\ninterface IUniswapV2Router02 is IUniswapV2Router01 {\r\n    function removeLiquidityETHSupportingFeeOnTransferTokens(\r\n        address token,\r\n        uint liquidity,\r\n        uint amountTokenMin,\r\n        uint amountETHMin,\r\n        address to,\r\n        uint deadline\r\n    ) external returns (uint amountETH);\r\n    function removeLiquidityETHWithPermitSupportingFeeOnTransferTokens(\r\n        address token,\r\n        uint liquidity,\r\n        uint amountTokenMin,\r\n        uint amountETHMin,\r\n        address to,\r\n        uint deadline,\r\n        bool approveMax, uint8 v, bytes32 r, bytes32 s\r\n    ) external returns (uint amountETH);\r\n\r\n    function swapExactTokensForTokensSupportingFeeOnTransferTokens(\r\n        uint amountIn,\r\n        uint amountOutMin,\r\n        address[] calldata path,\r\n        address to,\r\n        uint deadline\r\n    ) external;\r\n    function swapExactETHForTokensSupportingFeeOnTransferTokens(\r\n        uint amountOutMin,\r\n        address[] calldata path,\r\n        address to,\r\n        uint deadline\r\n    ) external payable;\r\n    function swapExactTokensForETHSupportingFeeOnTransferTokens(\r\n        uint amountIn,\r\n        uint amountOutMin,\r\n        address[] calldata path,\r\n        address to,\r\n        uint deadline\r\n    ) external;\r\n}\r\n\r\ncontract NeptuneDeFi is Context, IERC20, Ownable {\r\n    using SafeMath for uint256;\r\n    using Address for address;\r\n\r\n    mapping (address => uint256) private _rOwned;\r\n    mapping (address => uint256) private _tOwned;\r\n    mapping (address => mapping (address => uint256)) private _allowances;\r\n\r\n    mapping (address => bool) private _isExcludedFromFee;\r\n\r\n    mapping (address => bool) private _isExcluded;\r\n    address[] private _excluded;\r\n   \r\n    uint256 private constant MAX = ~uint256(0);\r\n    uint256 private _tTotal = 1000000000 * 10**6 * 10**9;\r\n    uint256 private _rTotal = (MAX - (MAX % _tTotal));\r\n    uint256 private _tFeeTotal;\r\n\r\n    string private _name = \"NeptuneDeFi\";\r\n    string private _symbol = \"NEPTUNEDEFI\";\r\n    uint8 private _decimals = 9;\r\n    \r\n    uint256 public _taxFee = 5;\r\n    uint256 private _previousTaxFee = _taxFee;\r\n    \r\n    uint256 public _liquidityFee = 5;\r\n    uint256 private _previousLiquidityFee = _liquidityFee;\r\n\r\n    IUniswapV2Router02 public immutable uniswapV2Router;\r\n    address public immutable uniswapV2Pair;\r\n    \r\n    bool inSwapAndLiquify;\r\n    bool public swapAndLiquifyEnabled = true;\r\n    \r\n    uint256 public _maxTxAmount = 5000000 * 10**6 * 10**9;\r\n    uint256 private numTokensSellToAddToLiquidity = 500000 * 10**6 * 10**9;\r\n    \r\n    event MinTokensBeforeSwapUpdated(uint256 minTokensBeforeSwap);\r\n    event SwapAndLiquifyEnabledUpdated(bool enabled);\r\n    event SwapAndLiquify(\r\n        uint256 tokensSwapped,\r\n        uint256 ethReceived,\r\n        uint256 tokensIntoLiqudity\r\n    );\r\n    \r\n    modifier lockTheSwap {\r\n        inSwapAndLiquify = true;\r\n        _;\r\n        inSwapAndLiquify = false;\r\n    }\r\n    \r\n    constructor () public {\r\n        _rOwned[_msgSender()] = _rTotal;\r\n        \r\n        IUniswapV2Router02 _uniswapV2Router = IUniswapV2Router02(0x98AB334d0041298410D109B2F3437A19C94489B6);\r\n         // Create a uniswap pair for this new token\r\n        uniswapV2Pair = IUniswapV2Factory(_uniswapV2Router.factory())\r\n            .createPair(address(this), _uniswapV2Router.WETH());\r\n\r\n        // set the rest of the contract variables\r\n        uniswapV2Router = _uniswapV2Router;\r\n        \r\n        //exclude owner and this contract from fee\r\n        _isExcludedFromFee[owner()] = true;\r\n        _isExcludedFromFee[address(this)] = true;\r\n        \r\n        emit Transfer(address(0), _msgSender(), _tTotal);\r\n    }\r\n\r\n    function name() public view returns (string memory) {\r\n        return _name;\r\n    }\r\n\r\n    function symbol() public view returns (string memory) {\r\n        return _symbol;\r\n    }\r\n\r\n    function decimals() public view returns (uint8) {\r\n        return _decimals;\r\n    }\r\n\r\n    function totalSupply() public view override returns (uint256) {\r\n        return _tTotal;\r\n    }\r\n\r\n    function balanceOf(address account) public view override returns (uint256) {\r\n        if (_isExcluded[account]) return _tOwned[account];\r\n        return tokenFromReflection(_rOwned[account]);\r\n    }\r\n\r\n    function transfer(address recipient, uint256 amount) public override returns (bool) {\r\n        _transfer(_msgSender(), recipient, amount);\r\n        return true;\r\n    }\r\n\r\n    function allowance(address owner, address spender) public view override returns (uint256) {\r\n        return _allowances[owner][spender];\r\n    }\r\n\r\n    function approve(address spender, uint256 amount) public override returns (bool) {\r\n        _approve(_msgSender(), spender, amount);\r\n        return true;\r\n    }\r\n\r\n    function transferFrom(address sender, address recipient, uint256 amount) public override returns (bool) {\r\n        _transfer(sender, recipient, amount);\r\n        _approve(sender, _msgSender(), _allowances[sender][_msgSender()].sub(amount, \"ERC20: transfer amount exceeds allowance\"));\r\n        return true;\r\n    }\r\n\r\n    function increaseAllowance(address spender, uint256 addedValue) public virtual returns (bool) {\r\n        _approve(_msgSender(), spender, _allowances[_msgSender()][spender].add(addedValue));\r\n        return true;\r\n    }\r\n\r\n    function decreaseAllowance(address spender, uint256 subtractedValue) public virtual returns (bool) {\r\n        _approve(_msgSender(), spender, _allowances[_msgSender()][spender].sub(subtractedValue, \"ERC20: decreased allowance below zero\"));\r\n        return true;\r\n    }\r\n\r\n    function isExcludedFromReward(address account) public view returns (bool) {\r\n        return _isExcluded[account];\r\n    }\r\n\r\n    function totalFees() public view returns (uint256) {\r\n        return _tFeeTotal;\r\n    }\r\n\r\n    function deliver(uint256 tAmount) public {\r\n        address sender = _msgSender();\r\n        require(!_isExcluded[sender], \"Excluded addresses cannot call this function\");\r\n        (uint256 rAmount,,,,,) = _getValues(tAmount);\r\n        _rOwned[sender] = _rOwned[sender].sub(rAmount);\r\n        _rTotal = _rTotal.sub(rAmount);\r\n        _tFeeTotal = _tFeeTotal.add(tAmount);\r\n    }\r\n\r\n    function reflectionFromToken(uint256 tAmount, bool deductTransferFee) public view returns(uint256) {\r\n        require(tAmount <= _tTotal, \"Amount must be less than supply\");\r\n        if (!deductTransferFee) {\r\n            (uint256 rAmount,,,,,) = _getValues(tAmount);\r\n            return rAmount;\r\n        } else {\r\n            (,uint256 rTransferAmount,,,,) = _getValues(tAmount);\r\n            return rTransferAmount;\r\n        }\r\n    }\r\n\r\n    function tokenFromReflection(uint256 rAmount) public view returns(uint256) {\r\n        require(rAmount <= _rTotal, \"Amount must be less than total reflections\");\r\n        uint256 currentRate =  _getRate();\r\n        return rAmount.div(currentRate);\r\n    }\r\n\r\n    function excludeFromReward(address account) public onlyOwner() {\r\n        // require(account != 0x7a250d5630B4cF539739dF2C5dAcb4c659F2488D, 'We can not exclude Uniswap router.');\r\n        require(!_isExcluded[account], \"Account is already excluded\");\r\n        if(_rOwned[account] > 0) {\r\n            _tOwned[account] = tokenFromReflection(_rOwned[account]);\r\n        }\r\n        _isExcluded[account] = true;\r\n        _excluded.push(account);\r\n    }\r\n\r\n    function includeInReward(address account) external onlyOwner() {\r\n        require(_isExcluded[account], \"Account is already excluded\");\r\n        for (uint256 i = 0; i < _excluded.length; i++) {\r\n            if (_excluded[i] == account) {\r\n                _excluded[i] = _excluded[_excluded.length - 1];\r\n                _tOwned[account] = 0;\r\n                _isExcluded[account] = false;\r\n                _excluded.pop();\r\n                break;\r\n            }\r\n        }\r\n    }\r\n        function _transferBothExcluded(address sender, address recipient, uint256 tAmount) private {\r\n        (uint256 rAmount, uint256 rTransferAmount, uint256 rFee, uint256 tTransferAmount, uint256 tFee, uint256 tLiquidity) = _getValues(tAmount);\r\n        _tOwned[sender] = _tOwned[sender].sub(tAmount);\r\n        _rOwned[sender] = _rOwned[sender].sub(rAmount);\r\n        _tOwned[recipient] = _tOwned[recipient].add(tTransferAmount);\r\n        _rOwned[recipient] = _rOwned[recipient].add(rTransferAmount);        \r\n        _takeLiquidity(tLiquidity);\r\n        _reflectFee(rFee, tFee);\r\n        emit Transfer(sender, recipient, tTransferAmount);\r\n    }\r\n    \r\n        function excludeFromFee(address account) public onlyOwner {\r\n        _isExcludedFromFee[account] = true;\r\n    }\r\n    \r\n    function includeInFee(address account) public onlyOwner {\r\n        _isExcludedFromFee[account] = false;\r\n    }\r\n    \r\n    function setTaxFeePercent(uint256 taxFee) external onlyOwner() {\r\n        _taxFee = taxFee;\r\n    }\r\n    \r\n    function setLiquidityFeePercent(uint256 liquidityFee) external onlyOwner() {\r\n        _liquidityFee = liquidityFee;\r\n    }\r\n   \r\n    function setMaxTxPercent(uint256 maxTxPercent) external onlyOwner() {\r\n        _maxTxAmount = _tTotal.mul(maxTxPercent).div(\r\n            10**2\r\n        );\r\n    }\r\n\r\n    function setSwapAndLiquifyEnabled(bool _enabled) public onlyOwner {\r\n        swapAndLiquifyEnabled = _enabled;\r\n        emit SwapAndLiquifyEnabledUpdated(_enabled);\r\n    }\r\n    \r\n     //to recieve ETH from uniswapV2Router when swaping\r\n    receive() external payable {}\r\n\r\n    function _reflectFee(uint256 rFee, uint256 tFee) private {\r\n        _rTotal = _rTotal.sub(rFee);\r\n        _tFeeTotal = _tFeeTotal.add(tFee);\r\n    }\r\n\r\n    function _getValues(uint256 tAmount) private view returns (uint256, uint256, uint256, uint256, uint256, uint256) {\r\n        (uint256 tTransferAmount, uint256 tFee, uint256 tLiquidity) = _getTValues(tAmount);\r\n        (uint256 rAmount, uint256 rTransferAmount, uint256 rFee) = _getRValues(tAmount, tFee, tLiquidity, _getRate());\r\n        return (rAmount, rTransferAmount, rFee, tTransferAmount, tFee, tLiquidity);\r\n    }\r\n\r\n    function _getTValues(uint256 tAmount) private view returns (uint256, uint256, uint256) {\r\n        uint256 tFee = calculateTaxFee(tAmount);\r\n        uint256 tLiquidity = calculateLiquidityFee(tAmount);\r\n        uint256 tTransferAmount = tAmount.sub(tFee).sub(tLiquidity);\r\n        return (tTransferAmount, tFee, tLiquidity);\r\n    }\r\n\r\n    function _getRValues(uint256 tAmount, uint256 tFee, uint256 tLiquidity, uint256 currentRate) private pure returns (uint256, uint256, uint256) {\r\n        uint256 rAmount = tAmount.mul(currentRate);\r\n        uint256 rFee = tFee.mul(currentRate);\r\n        uint256 rLiquidity = tLiquidity.mul(currentRate);\r\n        uint256 rTransferAmount = rAmount.sub(rFee).sub(rLiquidity);\r\n        return (rAmount, rTransferAmount, rFee);\r\n    }\r\n\r\n    function _getRate() private view returns(uint256) {\r\n        (uint256 rSupply, uint256 tSupply) = _getCurrentSupply();\r\n        return rSupply.div(tSupply);\r\n    }\r\n\r\n    function _getCurrentSupply() private view returns(uint256, uint256) {\r\n        uint256 rSupply = _rTotal;\r\n        uint256 tSupply = _tTotal;      \r\n        for (uint256 i = 0; i < _excluded.length; i++) {\r\n            if (_rOwned[_excluded[i]] > rSupply || _tOwned[_excluded[i]] > tSupply) return (_rTotal, _tTotal);\r\n            rSupply = rSupply.sub(_rOwned[_excluded[i]]);\r\n            tSupply = tSupply.sub(_tOwned[_excluded[i]]);\r\n        }\r\n        if (rSupply < _rTotal.div(_tTotal)) return (_rTotal, _tTotal);\r\n        return (rSupply, tSupply);\r\n    }\r\n    \r\n    function _takeLiquidity(uint256 tLiquidity) private {\r\n        uint256 currentRate =  _getRate();\r\n        uint256 rLiquidity = tLiquidity.mul(currentRate);\r\n        _rOwned[address(this)] = _rOwned[address(this)].add(rLiquidity);\r\n        if(_isExcluded[address(this)])\r\n            _tOwned[address(this)] = _tOwned[address(this)].add(tLiquidity);\r\n    }\r\n    \r\n    function calculateTaxFee(uint256 _amount) private view returns (uint256) {\r\n        return _amount.mul(_taxFee).div(\r\n            10**2\r\n        );\r\n    }\r\n\r\n    function calculateLiquidityFee(uint256 _amount) private view returns (uint256) {\r\n        return _amount.mul(_liquidityFee).div(\r\n            10**2\r\n        );\r\n    }\r\n    \r\n    function removeAllFee() private {\r\n        if(_taxFee == 0 && _liquidityFee == 0) return;\r\n        \r\n        _previousTaxFee = _taxFee;\r\n        _previousLiquidityFee = _liquidityFee;\r\n        \r\n        _taxFee = 0;\r\n        _liquidityFee = 0;\r\n    }\r\n    \r\n    function restoreAllFee() private {\r\n        _taxFee = _previousTaxFee;\r\n        _liquidityFee = _previousLiquidityFee;\r\n    }\r\n    \r\n    function isExcludedFromFee(address account) public view returns(bool) {\r\n        return _isExcludedFromFee[account];\r\n    }\r\n\r\n    function _approve(address owner, address spender, uint256 amount) private {\r\n        require(owner != address(0), \"ERC20: approve from the zero address\");\r\n        require(spender != address(0), \"ERC20: approve to the zero address\");\r\n\r\n        _allowances[owner][spender] = amount;\r\n        emit Approval(owner, spender, amount);\r\n    }\r\n\r\n    function _transfer(\r\n        address from,\r\n        address to,\r\n        uint256 amount\r\n    ) private {\r\n        require(from != address(0), \"ERC20: transfer from the zero address\");\r\n        require(to != address(0), \"ERC20: transfer to the zero address\");\r\n        require(amount > 0, \"Transfer amount must be greater than zero\");\r\n        if(from != owner() && to != owner())\r\n            require(amount <= _maxTxAmount, \"Transfer amount exceeds the maxTxAmount.\");\r\n\r\n        // is the token balance of this contract address over the min number of\r\n        // tokens that we need to initiate a swap + liquidity lock?\r\n        // also, don't get caught in a circular liquidity event.\r\n        // also, don't swap & liquify if sender is uniswap pair.\r\n        uint256 contractTokenBalance = balanceOf(address(this));\r\n        \r\n        if(contractTokenBalance >= _maxTxAmount)\r\n        {\r\n            contractTokenBalance = _maxTxAmount;\r\n        }\r\n        \r\n        bool overMinTokenBalance = contractTokenBalance >= numTokensSellToAddToLiquidity;\r\n        if (\r\n            overMinTokenBalance &&\r\n            !inSwapAndLiquify &&\r\n            from != uniswapV2Pair &&\r\n            swapAndLiquifyEnabled\r\n        ) {\r\n            contractTokenBalance = numTokensSellToAddToLiquidity;\r\n            //add liquidity\r\n            swapAndLiquify(contractTokenBalance);\r\n        }\r\n        \r\n        //indicates if fee should be deducted from transfer\r\n        bool takeFee = true;\r\n        \r\n        //if any account belongs to _isExcludedFromFee account then remove the fee\r\n        if(_isExcludedFromFee[from] || _isExcludedFromFee[to]){\r\n            takeFee = false;\r\n        }\r\n        \r\n        //transfer amount, it will take tax, burn, liquidity fee\r\n        _tokenTransfer(from,to,amount,takeFee);\r\n    }\r\n\r\n    function swapAndLiquify(uint256 contractTokenBalance) private lockTheSwap {\r\n        // split the contract balance into halves\r\n        uint256 half = contractTokenBalance.div(2);\r\n        uint256 otherHalf = contractTokenBalance.sub(half);\r\n\r\n        // capture the contract's current ETH balance.\r\n        // this is so that we can capture exactly the amount of ETH that the\r\n        // swap creates, and not make the liquidity event include any ETH that\r\n        // has been manually sent to the contract\r\n        uint256 initialBalance = address(this).balance;\r\n\r\n        // swap tokens for ETH\r\n        swapTokensForEth(half); // <- this breaks the ETH -> HATE swap when swap+liquify is triggered\r\n\r\n        // how much ETH did we just swap into?\r\n        uint256 newBalance = address(this).balance.sub(initialBalance);\r\n\r\n        // add liquidity to uniswap\r\n        addLiquidity(otherHalf, newBalance);\r\n        \r\n        emit SwapAndLiquify(half, newBalance, otherHalf);\r\n    }\r\n\r\n    function swapTokensForEth(uint256 tokenAmount) private {\r\n        // generate the uniswap pair path of token -> weth\r\n        address[] memory path = new address[](2);\r\n        path[0] = address(this);\r\n        path[1] = uniswapV2Router.WETH();\r\n\r\n        _approve(address(this), address(uniswapV2Router), tokenAmount);\r\n\r\n        // make the swap\r\n        uniswapV2Router.swapExactTokensForETHSupportingFeeOnTransferTokens(\r\n            tokenAmount,\r\n            0, // accept any amount of ETH\r\n            path,\r\n            address(this),\r\n            block.timestamp\r\n        );\r\n    }\r\n\r\n    function addLiquidity(uint256 tokenAmount, uint256 ethAmount) private {\r\n        // approve token transfer to cover all possible scenarios\r\n        _approve(address(this), address(uniswapV2Router), tokenAmount);\r\n\r\n        // add the liquidity\r\n        uniswapV2Router.addLiquidityETH{value: ethAmount}(\r\n            address(this),\r\n            tokenAmount,\r\n            0, // slippage is unavoidable\r\n            0, // slippage is unavoidable\r\n            owner(),\r\n            block.timestamp\r\n        );\r\n    }\r\n\r\n    //this method is responsible for taking all fee, if takeFee is true\r\n    function _tokenTransfer(address sender, address recipient, uint256 amount,bool takeFee) private {\r\n        if(!takeFee)\r\n            removeAllFee();\r\n        \r\n        if (_isExcluded[sender] && !_isExcluded[recipient]) {\r\n            _transferFromExcluded(sender, recipient, amount);\r\n        } else if (!_isExcluded[sender] && _isExcluded[recipient]) {\r\n            _transferToExcluded(sender, recipient, amount);\r\n        } else if (!_isExcluded[sender] && !_isExcluded[recipient]) {\r\n            _transferStandard(sender, recipient, amount);\r\n        } else if (_isExcluded[sender] && _isExcluded[recipient]) {\r\n            _transferBothExcluded(sender, recipient, amount);\r\n        } else {\r\n            _transferStandard(sender, recipient, amount);\r\n        }\r\n        \r\n        if(!takeFee)\r\n            restoreAllFee();\r\n    }\r\n\r\n    function _transferStandard(address sender, address recipient, uint256 tAmount) private {\r\n        (uint256 rAmount, uint256 rTransferAmount, uint256 rFee, uint256 tTransferAmount, uint256 tFee, uint256 tLiquidity) = _getValues(tAmount);\r\n        _rOwned[sender] = _rOwned[sender].sub(rAmount);\r\n        _rOwned[recipient] = _rOwned[recipient].add(rTransferAmount);\r\n        _takeLiquidity(tLiquidity);\r\n        _reflectFee(rFee, tFee);\r\n        emit Transfer(sender, recipient, tTransferAmount);\r\n    }\r\n\r\n    function _transferToExcluded(address sender, address recipient, uint256 tAmount) private {\r\n        (uint256 rAmount, uint256 rTransferAmount, uint256 rFee, uint256 tTransferAmount, uint256 tFee, uint256 tLiquidity) = _getValues(tAmount);\r\n        _rOwned[sender] = _rOwned[sender].sub(rAmount);\r\n        _tOwned[recipient] = _tOwned[recipient].add(tTransferAmount);\r\n        _rOwned[recipient] = _rOwned[recipient].add(rTransferAmount);           \r\n        _takeLiquidity(tLiquidity);\r\n        _reflectFee(rFee, tFee);\r\n        emit Transfer(sender, recipient, tTransferAmount);\r\n    }\r\n\r\n    function _transferFromExcluded(address sender, address recipient, uint256 tAmount) private {\r\n        (uint256 rAmount, uint256 rTransferAmount, uint256 rFee, uint256 tTransferAmount, uint256 tFee, uint256 tLiquidity) = _getValues(tAmount);\r\n        _tOwned[sender] = _tOwned[sender].sub(tAmount);\r\n        _rOwned[sender] = _rOwned[sender].sub(rAmount);\r\n        _rOwned[recipient] = _rOwned[recipient].add(rTransferAmount);   \r\n        _takeLiquidity(tLiquidity);\r\n        _reflectFee(rFee, tFee);\r\n        emit Transfer(sender, recipient, tTransferAmount);\r\n    }\r\n\r\n\r\n    \r\n\r\n}",
  "sourcePath": "C:/Users/hunte/dev/de-fi/neptune-core/contracts/NeptuneDeFi.sol",
  "compiler": {
    "name": "solc",
    "version": "0.8.1+commit.df193b15.Emscripten.clang"
  },
  "schemaVersion": "3.3.4",
  "updatedAt": "2021-04-21T00:38:06.970Z",
  "devdoc": {
    "kind": "dev",
    "methods": {
      "allowance(address,address)": {
        "details": "Returns the remaining number of tokens that `spender` will be allowed to spend on behalf of `owner` through {transferFrom}. This is zero by default. This value changes when {approve} or {transferFrom} are called."
      },
      "approve(address,uint256)": {
        "details": "Sets `amount` as the allowance of `spender` over the caller's tokens. Returns a boolean value indicating whether the operation succeeded. IMPORTANT: Beware that changing an allowance with this method brings the risk that someone may use both the old and the new allowance by unfortunate transaction ordering. One possible solution to mitigate this race condition is to first reduce the spender's allowance to 0 and set the desired value afterwards: https://github.com/ethereum/EIPs/issues/20#issuecomment-263524729 Emits an {Approval} event."
      },
      "balanceOf(address)": {
        "details": "Returns the amount of tokens owned by `account`."
      },
      "owner()": {
        "details": "Returns the address of the current owner."
      },
      "renounceOwnership()": {
        "details": "Leaves the contract without owner. It will not be possible to call `onlyOwner` functions anymore. Can only be called by the current owner. NOTE: Renouncing ownership will leave the contract without an owner, thereby removing any functionality that is only available to the owner."
      },
      "totalSupply()": {
        "details": "Returns the amount of tokens in existence."
      },
      "transfer(address,uint256)": {
        "details": "Moves `amount` tokens from the caller's account to `recipient`. Returns a boolean value indicating whether the operation succeeded. Emits a {Transfer} event."
      },
      "transferFrom(address,address,uint256)": {
        "details": "Moves `amount` tokens from `sender` to `recipient` using the allowance mechanism. `amount` is then deducted from the caller's allowance. Returns a boolean value indicating whether the operation succeeded. Emits a {Transfer} event."
      },
      "transferOwnership(address)": {
        "details": "Transfers ownership of the contract to a new account (`newOwner`). Can only be called by the current owner."
      }
    },
    "version": 1
  },
  "userdoc": {
    "kind": "user",
    "methods": {},
    "version": 1
  }
}